{
  "_format": "hh-sol-artifact-1",
  "contractName": "RoboTokenContract",
  "sourceName": "contracts/RoboTokenContract.sol",
  "abi": [
    {
      "inputs": [],
      "stateMutability": "nonpayable",
      "type": "constructor"
    },
    {
      "anonymous": false,
      "inputs": [
        {
          "indexed": true,
          "internalType": "address",
          "name": "owner",
          "type": "address"
        },
        {
          "indexed": true,
          "internalType": "address",
          "name": "approved",
          "type": "address"
        },
        {
          "indexed": true,
          "internalType": "uint256",
          "name": "tokenId",
          "type": "uint256"
        }
      ],
      "name": "Approval",
      "type": "event"
    },
    {
      "anonymous": false,
      "inputs": [
        {
          "indexed": true,
          "internalType": "address",
          "name": "owner",
          "type": "address"
        },
        {
          "indexed": true,
          "internalType": "address",
          "name": "operator",
          "type": "address"
        },
        {
          "indexed": false,
          "internalType": "bool",
          "name": "approved",
          "type": "bool"
        }
      ],
      "name": "ApprovalForAll",
      "type": "event"
    },
    {
      "anonymous": false,
      "inputs": [
        {
          "indexed": true,
          "internalType": "address",
          "name": "owner",
          "type": "address"
        },
        {
          "indexed": false,
          "internalType": "string",
          "name": "name",
          "type": "string"
        },
        {
          "indexed": false,
          "internalType": "string",
          "name": "description",
          "type": "string"
        },
        {
          "indexed": false,
          "internalType": "string",
          "name": "creator",
          "type": "string"
        },
        {
          "indexed": false,
          "internalType": "uint256",
          "name": "dna",
          "type": "uint256"
        }
      ],
      "name": "NewRoboToken",
      "type": "event"
    },
    {
      "anonymous": false,
      "inputs": [
        {
          "indexed": true,
          "internalType": "address",
          "name": "previousOwner",
          "type": "address"
        },
        {
          "indexed": true,
          "internalType": "address",
          "name": "newOwner",
          "type": "address"
        }
      ],
      "name": "OwnershipTransferred",
      "type": "event"
    },
    {
      "anonymous": false,
      "inputs": [
        {
          "indexed": true,
          "internalType": "address",
          "name": "from",
          "type": "address"
        },
        {
          "indexed": true,
          "internalType": "address",
          "name": "to",
          "type": "address"
        },
        {
          "indexed": true,
          "internalType": "uint256",
          "name": "tokenId",
          "type": "uint256"
        }
      ],
      "name": "Transfer",
      "type": "event"
    },
    {
      "inputs": [
        {
          "internalType": "uint256",
          "name": "",
          "type": "uint256"
        }
      ],
      "name": "RoboTokens",
      "outputs": [
        {
          "internalType": "string",
          "name": "name",
          "type": "string"
        },
        {
          "internalType": "string",
          "name": "description",
          "type": "string"
        },
        {
          "internalType": "string",
          "name": "creator",
          "type": "string"
        },
        {
          "internalType": "uint256",
          "name": "dna",
          "type": "uint256"
        }
      ],
      "stateMutability": "view",
      "type": "function"
    },
    {
      "inputs": [
        {
          "internalType": "address",
          "name": "to",
          "type": "address"
        },
        {
          "internalType": "uint256",
          "name": "tokenId",
          "type": "uint256"
        }
      ],
      "name": "approve",
      "outputs": [],
      "stateMutability": "nonpayable",
      "type": "function"
    },
    {
      "inputs": [
        {
          "internalType": "address",
          "name": "owner",
          "type": "address"
        }
      ],
      "name": "balanceOf",
      "outputs": [
        {
          "internalType": "uint256",
          "name": "",
          "type": "uint256"
        }
      ],
      "stateMutability": "view",
      "type": "function"
    },
    {
      "inputs": [
        {
          "internalType": "string",
          "name": "_name",
          "type": "string"
        },
        {
          "internalType": "string",
          "name": "_description",
          "type": "string"
        },
        {
          "internalType": "string",
          "name": "_creator",
          "type": "string"
        },
        {
          "internalType": "string[]",
          "name": "_script",
          "type": "string[]"
        }
      ],
      "name": "createMyRoboToken",
      "outputs": [],
      "stateMutability": "payable",
      "type": "function"
    },
    {
      "inputs": [
        {
          "internalType": "uint256",
          "name": "tokenId",
          "type": "uint256"
        }
      ],
      "name": "getApproved",
      "outputs": [
        {
          "internalType": "address",
          "name": "",
          "type": "address"
        }
      ],
      "stateMutability": "view",
      "type": "function"
    },
    {
      "inputs": [],
      "name": "getRoboTokens",
      "outputs": [
        {
          "components": [
            {
              "internalType": "string",
              "name": "name",
              "type": "string"
            },
            {
              "internalType": "string",
              "name": "description",
              "type": "string"
            },
            {
              "internalType": "string",
              "name": "creator",
              "type": "string"
            },
            {
              "internalType": "uint256",
              "name": "dna",
              "type": "uint256"
            },
            {
              "internalType": "string[]",
              "name": "script",
              "type": "string[]"
            }
          ],
          "internalType": "struct RoboTokenContract.RoboToken[]",
          "name": "",
          "type": "tuple[]"
        }
      ],
      "stateMutability": "view",
      "type": "function"
    },
    {
      "inputs": [
        {
          "internalType": "address",
          "name": "owner",
          "type": "address"
        },
        {
          "internalType": "address",
          "name": "operator",
          "type": "address"
        }
      ],
      "name": "isApprovedForAll",
      "outputs": [
        {
          "internalType": "bool",
          "name": "",
          "type": "bool"
        }
      ],
      "stateMutability": "view",
      "type": "function"
    },
    {
      "inputs": [],
      "name": "name",
      "outputs": [
        {
          "internalType": "string",
          "name": "",
          "type": "string"
        }
      ],
      "stateMutability": "view",
      "type": "function"
    },
    {
      "inputs": [],
      "name": "owner",
      "outputs": [
        {
          "internalType": "address",
          "name": "",
          "type": "address"
        }
      ],
      "stateMutability": "view",
      "type": "function"
    },
    {
      "inputs": [
        {
          "internalType": "uint256",
          "name": "tokenId",
          "type": "uint256"
        }
      ],
      "name": "ownerOf",
      "outputs": [
        {
          "internalType": "address",
          "name": "",
          "type": "address"
        }
      ],
      "stateMutability": "view",
      "type": "function"
    },
    {
      "inputs": [],
      "name": "renounceOwnership",
      "outputs": [],
      "stateMutability": "nonpayable",
      "type": "function"
    },
    {
      "inputs": [
        {
          "internalType": "address",
          "name": "from",
          "type": "address"
        },
        {
          "internalType": "address",
          "name": "to",
          "type": "address"
        },
        {
          "internalType": "uint256",
          "name": "tokenId",
          "type": "uint256"
        }
      ],
      "name": "safeTransferFrom",
      "outputs": [],
      "stateMutability": "nonpayable",
      "type": "function"
    },
    {
      "inputs": [
        {
          "internalType": "address",
          "name": "from",
          "type": "address"
        },
        {
          "internalType": "address",
          "name": "to",
          "type": "address"
        },
        {
          "internalType": "uint256",
          "name": "tokenId",
          "type": "uint256"
        },
        {
          "internalType": "bytes",
          "name": "data",
          "type": "bytes"
        }
      ],
      "name": "safeTransferFrom",
      "outputs": [],
      "stateMutability": "nonpayable",
      "type": "function"
    },
    {
      "inputs": [
        {
          "internalType": "address",
          "name": "operator",
          "type": "address"
        },
        {
          "internalType": "bool",
          "name": "approved",
          "type": "bool"
        }
      ],
      "name": "setApprovalForAll",
      "outputs": [],
      "stateMutability": "nonpayable",
      "type": "function"
    },
    {
      "inputs": [
        {
          "internalType": "bytes4",
          "name": "interfaceId",
          "type": "bytes4"
        }
      ],
      "name": "supportsInterface",
      "outputs": [
        {
          "internalType": "bool",
          "name": "",
          "type": "bool"
        }
      ],
      "stateMutability": "view",
      "type": "function"
    },
    {
      "inputs": [],
      "name": "symbol",
      "outputs": [
        {
          "internalType": "string",
          "name": "",
          "type": "string"
        }
      ],
      "stateMutability": "view",
      "type": "function"
    },
    {
      "inputs": [
        {
          "internalType": "uint256",
          "name": "tokenId",
          "type": "uint256"
        }
      ],
      "name": "tokenURI",
      "outputs": [
        {
          "internalType": "string",
          "name": "",
          "type": "string"
        }
      ],
      "stateMutability": "view",
      "type": "function"
    },
    {
      "inputs": [
        {
          "internalType": "address",
          "name": "from",
          "type": "address"
        },
        {
          "internalType": "address",
          "name": "to",
          "type": "address"
        },
        {
          "internalType": "uint256",
          "name": "tokenId",
          "type": "uint256"
        }
      ],
      "name": "transferFrom",
      "outputs": [],
      "stateMutability": "nonpayable",
      "type": "function"
    },
    {
      "inputs": [
        {
          "internalType": "address",
          "name": "newOwner",
          "type": "address"
        }
      ],
      "name": "transferOwnership",
      "outputs": [],
      "stateMutability": "nonpayable",
      "type": "function"
    },
    {
      "inputs": [
        {
          "internalType": "uint256",
          "name": "_fee",
          "type": "uint256"
        }
      ],
      "name": "updateFee",
      "outputs": [],
      "stateMutability": "nonpayable",
      "type": "function"
    },
    {
      "inputs": [],
      "name": "withdraw",
      "outputs": [],
      "stateMutability": "payable",
      "type": "function"
    }
  ],
  "bytecode": "0x6080604052600160075566470de4df8200006008553480156200002157600080fd5b506040518060400160405280600a81526020017f526f626f546f6b656e73000000000000000000000000000000000000000000008152506040518060400160405280600481526020017f52425453000000000000000000000000000000000000000000000000000000008152508160009080519060200190620000a6929190620001b6565b508060019080519060200190620000bf929190620001b6565b505050620000e2620000d6620000e860201b60201c565b620000f060201b60201c565b620002cb565b600033905090565b6000600660009054906101000a900473ffffffffffffffffffffffffffffffffffffffff16905081600660006101000a81548173ffffffffffffffffffffffffffffffffffffffff021916908373ffffffffffffffffffffffffffffffffffffffff1602179055508173ffffffffffffffffffffffffffffffffffffffff168173ffffffffffffffffffffffffffffffffffffffff167f8be0079c531659141344cd1fd0a4f28419497f9722a3daafe3b4186f6b6457e060405160405180910390a35050565b828054620001c49062000266565b90600052602060002090601f016020900481019282620001e8576000855562000234565b82601f106200020357805160ff191683800117855562000234565b8280016001018555821562000234579182015b828111156200023357825182559160200191906001019062000216565b5b50905062000243919062000247565b5090565b5b808211156200026257600081600090555060010162000248565b5090565b600060028204905060018216806200027f57607f821691505b602082108114156200029657620002956200029c565b5b50919050565b7f4e487b7100000000000000000000000000000000000000000000000000000000600052602260045260246000fd5b61391480620002db6000396000f3fe60806040526004361061012a5760003560e01c806370a08231116100ab578063a22cb4651161006f578063a22cb465146103b0578063a9fd1ed6146103d9578063b88d4fde14610419578063c87b56dd14610442578063e985e9c51461047f578063f2fde38b146104bc5761012a565b806370a08231146102dd578063715018a61461031a5780638da5cb5b146103315780639012c4a81461035c57806395d89b41146103855761012a565b80633975a675116100f25780633975a675146102265780633ccfd60b1461024257806342842e0e1461024c5780636352211e146102755780636a949321146102b25761012a565b806301ffc9a71461012f57806306fdde031461016c578063081812fc14610197578063095ea7b3146101d457806323b872dd146101fd575b600080fd5b34801561013b57600080fd5b506101566004803603810190610151919061270d565b6104e5565b6040516101639190612e03565b60405180910390f35b34801561017857600080fd5b506101816105c7565b60405161018e9190612e1e565b60405180910390f35b3480156101a357600080fd5b506101be60048036038101906101b99190612822565b610659565b6040516101cb9190612d7a565b60405180910390f35b3480156101e057600080fd5b506101fb60048036038101906101f691906126d1565b61069f565b005b34801561020957600080fd5b50610224600480360381019061021f91906125cb565b6107b7565b005b610240600480360381019061023b919061275f565b610817565b005b61024a61087c565b005b34801561025857600080fd5b50610273600480360381019061026e91906125cb565b6108da565b005b34801561028157600080fd5b5061029c60048036038101906102979190612822565b6108fa565b6040516102a99190612d7a565b60405180910390f35b3480156102be57600080fd5b506102c76109ac565b6040516102d49190612de1565b60405180910390f35b3480156102e957600080fd5b5061030460048036038101906102ff9190612566565b610ca4565b604051610311919061305a565b60405180910390f35b34801561032657600080fd5b5061032f610d5c565b005b34801561033d57600080fd5b50610346610d70565b6040516103539190612d7a565b60405180910390f35b34801561036857600080fd5b50610383600480360381019061037e9190612822565b610d9a565b005b34801561039157600080fd5b5061039a610dac565b6040516103a79190612e1e565b60405180910390f35b3480156103bc57600080fd5b506103d760048036038101906103d29190612695565b610e3e565b005b3480156103e557600080fd5b5061040060048036038101906103fb9190612822565b610e54565b6040516104109493929190612e40565b60405180910390f35b34801561042557600080fd5b50610440600480360381019061043b919061261a565b61102c565b005b34801561044e57600080fd5b5061046960048036038101906104649190612822565b61108e565b6040516104769190612e1e565b60405180910390f35b34801561048b57600080fd5b506104a660048036038101906104a1919061258f565b6110f6565b6040516104b39190612e03565b60405180910390f35b3480156104c857600080fd5b506104e360048036038101906104de9190612566565b61118a565b005b60007f80ac58cd000000000000000000000000000000000000000000000000000000007bffffffffffffffffffffffffffffffffffffffffffffffffffffffff1916827bffffffffffffffffffffffffffffffffffffffffffffffffffffffff191614806105b057507f5b5e139f000000000000000000000000000000000000000000000000000000007bffffffffffffffffffffffffffffffffffffffffffffffffffffffff1916827bffffffffffffffffffffffffffffffffffffffffffffffffffffffff1916145b806105c057506105bf8261120e565b5b9050919050565b6060600080546105d69061336a565b80601f01602080910402602001604051908101604052809291908181526020018280546106029061336a565b801561064f5780601f106106245761010080835404028352916020019161064f565b820191906000526020600020905b81548152906001019060200180831161063257829003601f168201915b5050505050905090565b600061066482611278565b6004600083815260200190815260200160002060009054906101000a900473ffffffffffffffffffffffffffffffffffffffff169050919050565b60006106aa826108fa565b90508073ffffffffffffffffffffffffffffffffffffffff168373ffffffffffffffffffffffffffffffffffffffff16141561071b576040517f08c379a00000000000000000000000000000000000000000000000000000000081526004016107129061301a565b60405180910390fd5b8073ffffffffffffffffffffffffffffffffffffffff1661073a6112c3565b73ffffffffffffffffffffffffffffffffffffffff1614806107695750610768816107636112c3565b6110f6565b5b6107a8576040517f08c379a000000000000000000000000000000000000000000000000000000000815260040161079f90612f9a565b60405180910390fd5b6107b283836112cb565b505050565b6107c86107c26112c3565b82611384565b610807576040517f08c379a00000000000000000000000000000000000000000000000000000000081526004016107fe9061303a565b60405180910390fd5b610812838383611419565b505050565b600854341461085b576040517f08c379a000000000000000000000000000000000000000000000000000000000815260040161085290612f7a565b60405180910390fd5b600061086682611680565b9050610875858585848661176b565b5050505050565b6108846118c2565b600061088e610d70565b90508073ffffffffffffffffffffffffffffffffffffffff166108fc479081150290604051600060405180830381858888f193505050501580156108d6573d6000803e3d6000fd5b5050565b6108f58383836040518060200160405280600081525061102c565b505050565b6000806002600084815260200190815260200160002060009054906101000a900473ffffffffffffffffffffffffffffffffffffffff169050600073ffffffffffffffffffffffffffffffffffffffff168173ffffffffffffffffffffffffffffffffffffffff1614156109a3576040517f08c379a000000000000000000000000000000000000000000000000000000000815260040161099a90612ffa565b60405180910390fd5b80915050919050565b60606009805480602002602001604051908101604052809291908181526020016000905b82821015610c9b57838290600052602060002090600502016040518060a0016040529081600082018054610a039061336a565b80601f0160208091040260200160405190810160405280929190818152602001828054610a2f9061336a565b8015610a7c5780601f10610a5157610100808354040283529160200191610a7c565b820191906000526020600020905b815481529060010190602001808311610a5f57829003601f168201915b50505050508152602001600182018054610a959061336a565b80601f0160208091040260200160405190810160405280929190818152602001828054610ac19061336a565b8015610b0e5780601f10610ae357610100808354040283529160200191610b0e565b820191906000526020600020905b815481529060010190602001808311610af157829003601f168201915b50505050508152602001600282018054610b279061336a565b80601f0160208091040260200160405190810160405280929190818152602001828054610b539061336a565b8015610ba05780601f10610b7557610100808354040283529160200191610ba0565b820191906000526020600020905b815481529060010190602001808311610b8357829003601f168201915b505050505081526020016003820154815260200160048201805480602002602001604051908101604052809291908181526020016000905b82821015610c84578382906000526020600020018054610bf79061336a565b80601f0160208091040260200160405190810160405280929190818152602001828054610c239061336a565b8015610c705780601f10610c4557610100808354040283529160200191610c70565b820191906000526020600020905b815481529060010190602001808311610c5357829003601f168201915b505050505081526020019060010190610bd8565b5050505081525050815260200190600101906109d0565b50505050905090565b60008073ffffffffffffffffffffffffffffffffffffffff168273ffffffffffffffffffffffffffffffffffffffff161415610d15576040517f08c379a0000000000000000000000000000000000000000000000000000000008152600401610d0c90612f5a565b60405180910390fd5b600360008373ffffffffffffffffffffffffffffffffffffffff1673ffffffffffffffffffffffffffffffffffffffff168152602001908152602001600020549050919050565b610d646118c2565b610d6e6000611940565b565b6000600660009054906101000a900473ffffffffffffffffffffffffffffffffffffffff16905090565b610da26118c2565b8060088190555050565b606060018054610dbb9061336a565b80601f0160208091040260200160405190810160405280929190818152602001828054610de79061336a565b8015610e345780601f10610e0957610100808354040283529160200191610e34565b820191906000526020600020905b815481529060010190602001808311610e1757829003601f168201915b5050505050905090565b610e50610e496112c3565b8383611a06565b5050565b60098181548110610e6457600080fd5b9060005260206000209060050201600091509050806000018054610e879061336a565b80601f0160208091040260200160405190810160405280929190818152602001828054610eb39061336a565b8015610f005780601f10610ed557610100808354040283529160200191610f00565b820191906000526020600020905b815481529060010190602001808311610ee357829003601f168201915b505050505090806001018054610f159061336a565b80601f0160208091040260200160405190810160405280929190818152602001828054610f419061336a565b8015610f8e5780601f10610f6357610100808354040283529160200191610f8e565b820191906000526020600020905b815481529060010190602001808311610f7157829003601f168201915b505050505090806002018054610fa39061336a565b80601f0160208091040260200160405190810160405280929190818152602001828054610fcf9061336a565b801561101c5780601f10610ff15761010080835404028352916020019161101c565b820191906000526020600020905b815481529060010190602001808311610fff57829003601f168201915b5050505050908060030154905084565b61103d6110376112c3565b83611384565b61107c576040517f08c379a00000000000000000000000000000000000000000000000000000000081526004016110739061303a565b60405180910390fd5b61108884848484611b73565b50505050565b606061109982611278565b60006110a3611bcf565b905060008151116110c357604051806020016040528060008152506110ee565b806110cd84611be6565b6040516020016110de929190612d56565b6040516020818303038152906040525b915050919050565b6000600560008473ffffffffffffffffffffffffffffffffffffffff1673ffffffffffffffffffffffffffffffffffffffff16815260200190815260200160002060008373ffffffffffffffffffffffffffffffffffffffff1673ffffffffffffffffffffffffffffffffffffffff16815260200190815260200160002060009054906101000a900460ff16905092915050565b6111926118c2565b600073ffffffffffffffffffffffffffffffffffffffff168173ffffffffffffffffffffffffffffffffffffffff161415611202576040517f08c379a00000000000000000000000000000000000000000000000000000000081526004016111f990612eba565b60405180910390fd5b61120b81611940565b50565b60007f01ffc9a7000000000000000000000000000000000000000000000000000000007bffffffffffffffffffffffffffffffffffffffffffffffffffffffff1916827bffffffffffffffffffffffffffffffffffffffffffffffffffffffff1916149050919050565b61128181611d93565b6112c0576040517f08c379a00000000000000000000000000000000000000000000000000000000081526004016112b790612ffa565b60405180910390fd5b50565b600033905090565b816004600083815260200190815260200160002060006101000a81548173ffffffffffffffffffffffffffffffffffffffff021916908373ffffffffffffffffffffffffffffffffffffffff160217905550808273ffffffffffffffffffffffffffffffffffffffff1661133e836108fa565b73ffffffffffffffffffffffffffffffffffffffff167f8c5be1e5ebec7d5bd14f71427d1e84f3dd0314c0f7b2291e5b200ac8c7c3b92560405160405180910390a45050565b600080611390836108fa565b90508073ffffffffffffffffffffffffffffffffffffffff168473ffffffffffffffffffffffffffffffffffffffff1614806113d257506113d181856110f6565b5b8061141057508373ffffffffffffffffffffffffffffffffffffffff166113f884610659565b73ffffffffffffffffffffffffffffffffffffffff16145b91505092915050565b8273ffffffffffffffffffffffffffffffffffffffff16611439826108fa565b73ffffffffffffffffffffffffffffffffffffffff161461148f576040517f08c379a000000000000000000000000000000000000000000000000000000000815260040161148690612eda565b60405180910390fd5b600073ffffffffffffffffffffffffffffffffffffffff168273ffffffffffffffffffffffffffffffffffffffff1614156114ff576040517f08c379a00000000000000000000000000000000000000000000000000000000081526004016114f690612f1a565b60405180910390fd5b61150a838383611dff565b6115156000826112cb565b6001600360008573ffffffffffffffffffffffffffffffffffffffff1673ffffffffffffffffffffffffffffffffffffffff16815260200190815260200160002060008282546115659190613280565b925050819055506001600360008473ffffffffffffffffffffffffffffffffffffffff1673ffffffffffffffffffffffffffffffffffffffff16815260200190815260200160002060008282546115bc91906131f9565b92505081905550816002600083815260200190815260200160002060006101000a81548173ffffffffffffffffffffffffffffffffffffffff021916908373ffffffffffffffffffffffffffffffffffffffff160217905550808273ffffffffffffffffffffffffffffffffffffffff168473ffffffffffffffffffffffffffffffffffffffff167fddf252ad1be2c89b69c2b068fc378daa952ba7f163c4a11628f55a4df523b3ef60405160405180910390a461167b838383611e04565b505050565b600080600090506000604051806020016040528060008152509050600091505b835182101561172057808483815181106116e3577f4e487b7100000000000000000000000000000000000000000000000000000000600052603260045260246000fd5b60200260200101516040516020016116fc929190612d1b565b60405160208183030381529060405290508180611718906133cd565b9250506116a0565b6000816040516020016117339190612d3f565b6040516020818303038152906040528051906020012060001c9050662386f26fc10000816117619190613416565b9350505050919050565b60006040518060a00160405280878152602001868152602001858152602001848152602001838152509050600981908060018154018082558091505060019003906000526020600020906005020160009091909190915060008201518160000190805190602001906117de929190612216565b5060208201518160010190805190602001906117fb929190612216565b506040820151816002019080519060200190611818929190612216565b5060608201518160030155608082015181600401908051906020019061183f92919061229c565b50505061184e33600754611e09565b3373ffffffffffffffffffffffffffffffffffffffff167f39c41c0b97d7fb16354a0cefb995044728074aa5fe83683015655367671451de8787878760405161189a9493929190612e40565b60405180910390a2600760008154809291906118b5906133cd565b9190505550505050505050565b6118ca6112c3565b73ffffffffffffffffffffffffffffffffffffffff166118e8610d70565b73ffffffffffffffffffffffffffffffffffffffff161461193e576040517f08c379a000000000000000000000000000000000000000000000000000000000815260040161193590612fda565b60405180910390fd5b565b6000600660009054906101000a900473ffffffffffffffffffffffffffffffffffffffff16905081600660006101000a81548173ffffffffffffffffffffffffffffffffffffffff021916908373ffffffffffffffffffffffffffffffffffffffff1602179055508173ffffffffffffffffffffffffffffffffffffffff168173ffffffffffffffffffffffffffffffffffffffff167f8be0079c531659141344cd1fd0a4f28419497f9722a3daafe3b4186f6b6457e060405160405180910390a35050565b8173ffffffffffffffffffffffffffffffffffffffff168373ffffffffffffffffffffffffffffffffffffffff161415611a75576040517f08c379a0000000000000000000000000000000000000000000000000000000008152600401611a6c90612f3a565b60405180910390fd5b80600560008573ffffffffffffffffffffffffffffffffffffffff1673ffffffffffffffffffffffffffffffffffffffff16815260200190815260200160002060008473ffffffffffffffffffffffffffffffffffffffff1673ffffffffffffffffffffffffffffffffffffffff16815260200190815260200160002060006101000a81548160ff0219169083151502179055508173ffffffffffffffffffffffffffffffffffffffff168373ffffffffffffffffffffffffffffffffffffffff167f17307eab39ab6107e8899845ad3d59bd9653f200f220920489ca2b5937696c3183604051611b669190612e03565b60405180910390a3505050565b611b7e848484611419565b611b8a84848484611e27565b611bc9576040517f08c379a0000000000000000000000000000000000000000000000000000000008152600401611bc090612e9a565b60405180910390fd5b50505050565b606060405180602001604052806000815250905090565b60606000821415611c2e576040518060400160405280600181526020017f30000000000000000000000000000000000000000000000000000000000000008152509050611d8e565b600082905060005b60008214611c60578080611c49906133cd565b915050600a82611c59919061324f565b9150611c36565b60008167ffffffffffffffff811115611ca2577f4e487b7100000000000000000000000000000000000000000000000000000000600052604160045260246000fd5b6040519080825280601f01601f191660200182016040528015611cd45781602001600182028036833780820191505090505b5090505b60008514611d8757600182611ced9190613280565b9150600a85611cfc9190613416565b6030611d0891906131f9565b60f81b818381518110611d44577f4e487b7100000000000000000000000000000000000000000000000000000000600052603260045260246000fd5b60200101907effffffffffffffffffffffffffffffffffffffffffffffffffffffffffffff1916908160001a905350600a85611d80919061324f565b9450611cd8565b8093505050505b919050565b60008073ffffffffffffffffffffffffffffffffffffffff166002600084815260200190815260200160002060009054906101000a900473ffffffffffffffffffffffffffffffffffffffff1673ffffffffffffffffffffffffffffffffffffffff1614159050919050565b505050565b505050565b611e23828260405180602001604052806000815250611fbe565b5050565b6000611e488473ffffffffffffffffffffffffffffffffffffffff16612019565b15611fb1578373ffffffffffffffffffffffffffffffffffffffff1663150b7a02611e716112c3565b8786866040518563ffffffff1660e01b8152600401611e939493929190612d95565b602060405180830381600087803b158015611ead57600080fd5b505af1925050508015611ede57506040513d601f19601f82011682018060405250810190611edb9190612736565b60015b611f61573d8060008114611f0e576040519150601f19603f3d011682016040523d82523d6000602084013e611f13565b606091505b50600081511415611f59576040517f08c379a0000000000000000000000000000000000000000000000000000000008152600401611f5090612e9a565b60405180910390fd5b805181602001fd5b63150b7a0260e01b7bffffffffffffffffffffffffffffffffffffffffffffffffffffffff1916817bffffffffffffffffffffffffffffffffffffffffffffffffffffffff191614915050611fb6565b600190505b949350505050565b611fc8838361203c565b611fd56000848484611e27565b612014576040517f08c379a000000000000000000000000000000000000000000000000000000000815260040161200b90612e9a565b60405180910390fd5b505050565b6000808273ffffffffffffffffffffffffffffffffffffffff163b119050919050565b600073ffffffffffffffffffffffffffffffffffffffff168273ffffffffffffffffffffffffffffffffffffffff1614156120ac576040517f08c379a00000000000000000000000000000000000000000000000000000000081526004016120a390612fba565b60405180910390fd5b6120b581611d93565b156120f5576040517f08c379a00000000000000000000000000000000000000000000000000000000081526004016120ec90612efa565b60405180910390fd5b61210160008383611dff565b6001600360008473ffffffffffffffffffffffffffffffffffffffff1673ffffffffffffffffffffffffffffffffffffffff168152602001908152602001600020600082825461215191906131f9565b92505081905550816002600083815260200190815260200160002060006101000a81548173ffffffffffffffffffffffffffffffffffffffff021916908373ffffffffffffffffffffffffffffffffffffffff160217905550808273ffffffffffffffffffffffffffffffffffffffff16600073ffffffffffffffffffffffffffffffffffffffff167fddf252ad1be2c89b69c2b068fc378daa952ba7f163c4a11628f55a4df523b3ef60405160405180910390a461221260008383611e04565b5050565b8280546122229061336a565b90600052602060002090601f016020900481019282612244576000855561228b565b82601f1061225d57805160ff191683800117855561228b565b8280016001018555821561228b579182015b8281111561228a57825182559160200191906001019061226f565b5b50905061229891906122fc565b5090565b8280548282559060005260206000209081019282156122eb579160200282015b828111156122ea5782518290805190602001906122da929190612216565b50916020019190600101906122bc565b5b5090506122f89190612319565b5090565b5b808211156123155760008160009055506001016122fd565b5090565b5b808211156123395760008181612330919061233d565b5060010161231a565b5090565b5080546123499061336a565b6000825580601f1061235b575061237a565b601f01602090049060005260206000209081019061237991906122fc565b5b50565b600061239061238b8461309a565b613075565b905080838252602082019050828560208602820111156123af57600080fd5b60005b858110156123f957813567ffffffffffffffff8111156123d157600080fd5b8086016123de8982612527565b855260208501945060208401935050506001810190506123b2565b5050509392505050565b6000612416612411846130c6565b613075565b90508281526020810184848401111561242e57600080fd5b612439848285613328565b509392505050565b600061245461244f846130f7565b613075565b90508281526020810184848401111561246c57600080fd5b612477848285613328565b509392505050565b60008135905061248e81613882565b92915050565b600082601f8301126124a557600080fd5b81356124b584826020860161237d565b91505092915050565b6000813590506124cd81613899565b92915050565b6000813590506124e2816138b0565b92915050565b6000815190506124f7816138b0565b92915050565b600082601f83011261250e57600080fd5b813561251e848260208601612403565b91505092915050565b600082601f83011261253857600080fd5b8135612548848260208601612441565b91505092915050565b600081359050612560816138c7565b92915050565b60006020828403121561257857600080fd5b60006125868482850161247f565b91505092915050565b600080604083850312156125a257600080fd5b60006125b08582860161247f565b92505060206125c18582860161247f565b9150509250929050565b6000806000606084860312156125e057600080fd5b60006125ee8682870161247f565b93505060206125ff8682870161247f565b925050604061261086828701612551565b9150509250925092565b6000806000806080858703121561263057600080fd5b600061263e8782880161247f565b945050602061264f8782880161247f565b935050604061266087828801612551565b925050606085013567ffffffffffffffff81111561267d57600080fd5b612689878288016124fd565b91505092959194509250565b600080604083850312156126a857600080fd5b60006126b68582860161247f565b92505060206126c7858286016124be565b9150509250929050565b600080604083850312156126e457600080fd5b60006126f28582860161247f565b925050602061270385828601612551565b9150509250929050565b60006020828403121561271f57600080fd5b600061272d848285016124d3565b91505092915050565b60006020828403121561274857600080fd5b6000612756848285016124e8565b91505092915050565b6000806000806080858703121561277557600080fd5b600085013567ffffffffffffffff81111561278f57600080fd5b61279b87828801612527565b945050602085013567ffffffffffffffff8111156127b857600080fd5b6127c487828801612527565b935050604085013567ffffffffffffffff8111156127e157600080fd5b6127ed87828801612527565b925050606085013567ffffffffffffffff81111561280a57600080fd5b61281687828801612494565b91505092959194509250565b60006020828403121561283457600080fd5b600061284284828501612551565b91505092915050565b600061285783836129e5565b905092915050565b600061286b8383612c72565b905092915050565b61287c816132b4565b82525050565b600061288d82613148565b612897818561318e565b9350836020820285016128a985613128565b8060005b858110156128e557848403895281516128c6858261284b565b94506128d183613174565b925060208a019950506001810190506128ad565b50829750879550505050505092915050565b600061290282613153565b61290c818561319f565b93508360208202850161291e85613138565b8060005b8581101561295a578484038952815161293b858261285f565b945061294683613181565b925060208a01995050600181019050612922565b50829750879550505050505092915050565b612975816132c6565b82525050565b60006129868261315e565b61299081856131b0565b93506129a0818560208601613337565b6129a981613503565b840191505092915050565b60006129bf8261315e565b6129c981856131c1565b93506129d9818560208601613337565b80840191505092915050565b60006129f082613169565b6129fa81856131cc565b9350612a0a818560208601613337565b612a1381613503565b840191505092915050565b6000612a2982613169565b612a3381856131dd565b9350612a43818560208601613337565b612a4c81613503565b840191505092915050565b6000612a6282613169565b612a6c81856131ee565b9350612a7c818560208601613337565b80840191505092915050565b6000612a956032836131dd565b9150612aa082613514565b604082019050919050565b6000612ab86026836131dd565b9150612ac382613563565b604082019050919050565b6000612adb6025836131dd565b9150612ae6826135b2565b604082019050919050565b6000612afe601c836131dd565b9150612b0982613601565b602082019050919050565b6000612b216024836131dd565b9150612b2c8261362a565b604082019050919050565b6000612b446019836131dd565b9150612b4f82613679565b602082019050919050565b6000612b676029836131dd565b9150612b72826136a2565b604082019050919050565b6000612b8a6015836131dd565b9150612b95826136f1565b602082019050919050565b6000612bad603e836131dd565b9150612bb88261371a565b604082019050919050565b6000612bd06020836131dd565b9150612bdb82613769565b602082019050919050565b6000612bf36020836131dd565b9150612bfe82613792565b602082019050919050565b6000612c166018836131dd565b9150612c21826137bb565b602082019050919050565b6000612c396021836131dd565b9150612c44826137e4565b604082019050919050565b6000612c5c602e836131dd565b9150612c6782613833565b604082019050919050565b600060a0830160008301518482036000860152612c8f82826129e5565b91505060208301518482036020860152612ca982826129e5565b91505060408301518482036040860152612cc382826129e5565b9150506060830151612cd86060860182612cfd565b5060808301518482036080860152612cf08282612882565b9150508091505092915050565b612d068161331e565b82525050565b612d158161331e565b82525050565b6000612d2782856129b4565b9150612d3382846129b4565b91508190509392505050565b6000612d4b8284612a57565b915081905092915050565b6000612d628285612a57565b9150612d6e8284612a57565b91508190509392505050565b6000602082019050612d8f6000830184612873565b92915050565b6000608082019050612daa6000830187612873565b612db76020830186612873565b612dc46040830185612d0c565b8181036060830152612dd6818461297b565b905095945050505050565b60006020820190508181036000830152612dfb81846128f7565b905092915050565b6000602082019050612e18600083018461296c565b92915050565b60006020820190508181036000830152612e388184612a1e565b905092915050565b60006080820190508181036000830152612e5a8187612a1e565b90508181036020830152612e6e8186612a1e565b90508181036040830152612e828185612a1e565b9050612e916060830184612d0c565b95945050505050565b60006020820190508181036000830152612eb381612a88565b9050919050565b60006020820190508181036000830152612ed381612aab565b9050919050565b60006020820190508181036000830152612ef381612ace565b9050919050565b60006020820190508181036000830152612f1381612af1565b9050919050565b60006020820190508181036000830152612f3381612b14565b9050919050565b60006020820190508181036000830152612f5381612b37565b9050919050565b60006020820190508181036000830152612f7381612b5a565b9050919050565b60006020820190508181036000830152612f9381612b7d565b9050919050565b60006020820190508181036000830152612fb381612ba0565b9050919050565b60006020820190508181036000830152612fd381612bc3565b9050919050565b60006020820190508181036000830152612ff381612be6565b9050919050565b6000602082019050818103600083015261301381612c09565b9050919050565b6000602082019050818103600083015261303381612c2c565b9050919050565b6000602082019050818103600083015261305381612c4f565b9050919050565b600060208201905061306f6000830184612d0c565b92915050565b600061307f613090565b905061308b828261339c565b919050565b6000604051905090565b600067ffffffffffffffff8211156130b5576130b46134d4565b5b602082029050602081019050919050565b600067ffffffffffffffff8211156130e1576130e06134d4565b5b6130ea82613503565b9050602081019050919050565b600067ffffffffffffffff821115613112576131116134d4565b5b61311b82613503565b9050602081019050919050565b6000819050602082019050919050565b6000819050602082019050919050565b600081519050919050565b600081519050919050565b600081519050919050565b600081519050919050565b6000602082019050919050565b6000602082019050919050565b600082825260208201905092915050565b600082825260208201905092915050565b600082825260208201905092915050565b600081905092915050565b600082825260208201905092915050565b600082825260208201905092915050565b600081905092915050565b60006132048261331e565b915061320f8361331e565b9250827fffffffffffffffffffffffffffffffffffffffffffffffffffffffffffffffff0382111561324457613243613447565b5b828201905092915050565b600061325a8261331e565b91506132658361331e565b92508261327557613274613476565b5b828204905092915050565b600061328b8261331e565b91506132968361331e565b9250828210156132a9576132a8613447565b5b828203905092915050565b60006132bf826132fe565b9050919050565b60008115159050919050565b60007fffffffff0000000000000000000000000000000000000000000000000000000082169050919050565b600073ffffffffffffffffffffffffffffffffffffffff82169050919050565b6000819050919050565b82818337600083830152505050565b60005b8381101561335557808201518184015260208101905061333a565b83811115613364576000848401525b50505050565b6000600282049050600182168061338257607f821691505b60208210811415613396576133956134a5565b5b50919050565b6133a582613503565b810181811067ffffffffffffffff821117156133c4576133c36134d4565b5b80604052505050565b60006133d88261331e565b91507fffffffffffffffffffffffffffffffffffffffffffffffffffffffffffffffff82141561340b5761340a613447565b5b600182019050919050565b60006134218261331e565b915061342c8361331e565b92508261343c5761343b613476565b5b828206905092915050565b7f4e487b7100000000000000000000000000000000000000000000000000000000600052601160045260246000fd5b7f4e487b7100000000000000000000000000000000000000000000000000000000600052601260045260246000fd5b7f4e487b7100000000000000000000000000000000000000000000000000000000600052602260045260246000fd5b7f4e487b7100000000000000000000000000000000000000000000000000000000600052604160045260246000fd5b6000601f19601f8301169050919050565b7f4552433732313a207472616e7366657220746f206e6f6e20455243373231526560008201527f63656976657220696d706c656d656e7465720000000000000000000000000000602082015250565b7f4f776e61626c653a206e6577206f776e657220697320746865207a65726f206160008201527f6464726573730000000000000000000000000000000000000000000000000000602082015250565b7f4552433732313a207472616e736665722066726f6d20696e636f72726563742060008201527f6f776e6572000000000000000000000000000000000000000000000000000000602082015250565b7f4552433732313a20746f6b656e20616c7265616479206d696e74656400000000600082015250565b7f4552433732313a207472616e7366657220746f20746865207a65726f2061646460008201527f7265737300000000000000000000000000000000000000000000000000000000602082015250565b7f4552433732313a20617070726f766520746f2063616c6c657200000000000000600082015250565b7f4552433732313a2061646472657373207a65726f206973206e6f74206120766160008201527f6c6964206f776e65720000000000000000000000000000000000000000000000602082015250565b7f54686520666565206973206e6f7420656e6f7567680000000000000000000000600082015250565b7f4552433732313a20617070726f76652063616c6c6572206973206e6f7420746f60008201527f6b656e206f776e6572206e6f7220617070726f76656420666f7220616c6c0000602082015250565b7f4552433732313a206d696e7420746f20746865207a65726f2061646472657373600082015250565b7f4f776e61626c653a2063616c6c6572206973206e6f7420746865206f776e6572600082015250565b7f4552433732313a20696e76616c696420746f6b656e2049440000000000000000600082015250565b7f4552433732313a20617070726f76616c20746f2063757272656e74206f776e6560008201527f7200000000000000000000000000000000000000000000000000000000000000602082015250565b7f4552433732313a2063616c6c6572206973206e6f7420746f6b656e206f776e6560008201527f72206e6f7220617070726f766564000000000000000000000000000000000000602082015250565b61388b816132b4565b811461389657600080fd5b50565b6138a2816132c6565b81146138ad57600080fd5b50565b6138b9816132d2565b81146138c457600080fd5b50565b6138d08161331e565b81146138db57600080fd5b5056fea2646970667358221220b13af54bc3746db4a60d436589cc1d29afcd6be5a40aedf4c9739b5ed0e0e97864736f6c63430008040033",
  "linkReferences": {},
  "deployedLinkReferences": {}
}